:020000040800F2
:10000000C00600202D0200083F13000865120008FA
:100010003D1300082F030008DF1700080000000050
:10002000000000000000000000000000C1130008F4
:10003000310300080000000041130008C31300084A
:10004000470200084702000847020008470200086C
:10005000470200084702000847020008470200085C
:10006000470200084702000847020008470200084C
:10007000470200084702000847020008470200083C
:10008000470200084702000847020008470200082C
:10009000470200084702000847020008470200081C
:1000A000470200084702000847020008470200080C
:1000B000470200080000000000000000470200089E
:1000C00047020008470200084702000847020008EC
:1000D00047020008470200084702000847020008DC
:1000E000470200084702000800000000000000006E
:1000F0000000000000000000000000000000000000
:10010000000000004702000800000000470200084D
:10011000000000000000000047020008470200083D
:10012000470200084702000847020008470200088B
:10013000470200080000000000000000000000006E
:1001400047020008470200084702000800000000BC
:10015000470200084702000847020008470200085B
:10016000470200084702000847020008000000009C
:1001700047020008470200080000000000000000DD
:1001800047020008470200084702000800F002F892
:1001900000F03CF80AA090E8000C82448344AAF1E5
:1001A0000107DA4501D100F031F8AFF2090EBAE8E3
:1001B0000F0013F0010F18BFFB1A43F0010318479B
:1001C000E416000004170000103A24BF78C878C174
:1001D000FAD8520724BF30C830C144BF04680C604D
:1001E000704700000023002400250026103A28BF95
:1001F00078C1FBD8520728BF30C148BF0B60704799
:100200001FB501F029FB1FBD10B510BD00F058F857
:100210001146FFF7F5FF01F0F3FA00F076F803B4AA
:10022000FFF7F2FF03BC00F07BF8000009488047AD
:1002300009480047FEE7FEE7FEE7FEE7FEE7FEE7C8
:10024000FEE7FEE7FEE7FEE704480549054A064BE0
:1002500070470000351400088D010008C000002020
:10026000C0060020C0020020C00200204FF00002A3
:1002700000B5134694469646203922BFA0E80C509C
:10028000A0E80C50B1F12001BFF4F7AF090728BF77
:10029000A0E80C5048BF0CC05DF804EB890028BFF3
:1002A00040F8042B08BF704748BF20F8022B11F01C
:1002B000804F18BF00F8012B704770477047704798
:1002C000754600F029F8AE4605006946534620F011
:1002D0000700854618B020B5FFF7B6FFBDE82040FF
:1002E0004FF000064FF000074FF000084FF0000BF2
:1002F00021F00701AC46ACE8C009ACE8C009ACE8A5
:10030000C009ACE8C0098D4670470446AFF30080D1
:100310002046FFF784FF000000487047600000207F
:1003200001491820ABBEFEE7260002007047FEE739
:10033000704772B6FEE7000070B5044600F0EAF8B8
:100340000546601C02D004480078044400F0E2F83E
:10035000401BA042FAD370BD040000202DE9FC4FE1
:10036000DFF894A1002301250AF1040B03244FF0C8
:100370000F0C0BF1040EB8E005FA03F632406FD013
:100380004F68012F05D0022F03D0112F01D0122F5B
:1003900017D1D0F808905F0004FA07F829EA080995
:1003A0000097D1F80C8008FA07F848EA0908C0F865
:1003B00008804768B7430E79C6F300169E403E4357
:1003C0004660C6684FEA430804FA08F7BE4301973F
:1003D0008F6807FA08F73743C7604E68022E01D0CE
:1003E000122E13D1DE0800EB86060096366A5F07F0
:1003F000FF0E0CFA07F926EA0906D1F8109009FA5F
:1004000007F949EA0609009EC6F820900668019F90
:10041000BE430F7907F0030707FA08F73743076071
:100420004E68F60060D5354E376E47F001073766E7
:10043000366E23F0030706F001060096304E3E4468
:10044000B146B6689F074FEA17780CFA08F7BE4323
:10045000B0F1904F05D02B4FB84204D1012712E0E4
:1004600042E000270FE0284FB84201D102270AE0FE
:10047000264FB84201D1032705E0254FB84201D1EC
:10048000042700E0072707FA08F73743C9F8087080
:10049000DAF800605746D1F8048096435FEAC8381E
:1004A00000D516433E60DBF800605F46D1F804805B
:1004B00096435FEA883800D516433E60DEF8006058
:1004C0007746D1F8048096435FEAC82800D51643E2
:1004D0003E60094F0C373E68D1F8048096435FEACE
:1004E000882800D516433E605B1C0A6832FA03F682
:1004F0007FF442AFBDE8FC8F0004014000100240D1
:10050000000001400004004800080048000C0048BA
:100510000010004801488068704700000400002077
:10052000024881680278114481607047040000200D
:1005300010B50024032000F063F80F2000F008F845
:1005400008B1012401E000F025F8204610BD0000AC
:1005500070B50E4E05460024307898B14FF47A718C
:10056000B1FBF0F00A490968B1FBF0F000F02EFC95
:1005700040B9102D06D200222946501E00F020F866
:10058000756000E00124204670BD000004000020DA
:1005900010000020094808B5016E41F00101016614
:1005A000016E01F001010091816D41F08051816582
:1005B000806D00F08050009008BD000000100240E7
:1005C000F0B40E4B1B680C46C3F30223C3F10705BE
:1005D000042D00D90425191D072901D2002300E0AC
:1005E000DB1E012606FA05F1491E214099409E4076
:1005F000761E16403143F0BC01F0F2B80CED00E07D
:10060000064900F0070208684FF6FF03184040EA69
:100610000220034A10430860704700000CED00E020
:100620000000FA051649B0F5007F0868C0F34120C4
:1006300009D0022805D0086820F4C06040F480602A
:100640000860002070470128FBD0086820F4C060D3
:1006500040F4007008600B483222006850430A4A98
:10066000B0FBF2F0401C00E0401E4A69520501D583
:100670000028F9D148694005E3D503207047000000
:10068000007000401000002040420F000248006847
:1006900000F4C06070470000007000402DE9F04792
:1006A0000F46050058D0404E306800F00700B842B1
:1006B00009D2306820F0070038433060306800F01D
:1006C0000700B84248D12878384CC0072CD0686859
:1006D000032811D0022812D0216898B149050029B9
:1006E0003ADAA16821F003010143A160FFF712FF8C
:1006F000804641F2883910E021688901EFE72168DE
:100700008903ECE78907EAE7FFF704FFA0EB08019C
:10071000494502D90320BDE8F087A068696800F068
:100720000C00B0EB810FEFD12878800705D5A068C9
:10073000A96820F0F0000843A060306800F00700CE
:10074000B8420BD9306820F0070038433060306879
:1007500000F00700B84201D00120DCE7287840070C
:1007600005D5A068E96820F4E0600843A060287817
:10077000000706D5A068296920F4605040EAC1004E
:10078000A06000F01BF8A168094AC1F30311515C95
:1007900001F01F01C8400749086007480068BDE82C
:1007A000F047FFF7D5BE00000020024000100240D5
:1007B00064180008100000200800002070B52549CA
:1007C000002318468A68CC6812F00C0204F0030675
:1007D000214C4FEA640509D00C2A05D0042A32D0F6
:1007E000082A00D1284670BD012E10D10B681B07C6
:1007F00004D4D1F89430C3F3032302E00B68C3F3AD
:100800000313164E56F82330DAB10C2AEBD1C86820
:1008100000F00300022818D0032818D01846CA6830
:10082000CB68C2F30212C3F306234343521CB3FB4B
:10083000F2F2C868C0F34160401C4000B2FBF0F027
:1008400070BD184670BD204670BD2046E7E72846BB
:10085000E5E70000001002400024F40074180008CE
:100860002DE9F84304006FD0FE4DA86800F00C0697
:10087000E86800F003072078C00664D576B10C2E36
:1008800001D1012F0AD0A069002828687AD040F051
:1008900001002860FFF73EFE80465DE02868800783
:1008A00002D5A0690028DED0216A2868000703D598
:1008B000286800F0F00004E0D5F89400F02202EA85
:1008C0001010814216D9084600F03CFD00283BD1AB
:1008D000286840F0080028602868216A20F0F000AD
:1008E000084328606868E16920F47F4040EA0120FD
:1008F000686016E0286840F0080028602868216ACF
:1009000020F0F000084328606868E16920F47F4027
:1009100040EA0120686026B9206A00F013FD002833
:10092000D5D1FFF74BFFA968CF4AC1F30311515C42
:1009300001F01F01C840CD490860CD480068FFF7AD
:1009400007FE00287ED12EE0CAE000BFFFF7E2FDDF
:10095000A0EB0800022876D828688007F6D528681A
:1009600040F0080028602868216A20F0F000084361
:1009700028606868E16920F47F4040EA01206860EF
:1009800011E0FFE720F001002860FFF7C3FD80467B
:1009900006E000BFFFF7BEFDA0EB08000228DAD892
:1009A00028688007F6D42078C00740D0082E18D0D9
:1009B0000C2E01D1032F14D06068B0F5803F17D002
:1009C000B0F5A02F286817D020F480302860286860
:1009D00020F4802028606068E0B1FFF79BFD80462E
:1009E00014E02868800322D56068002878D01EE0D3
:1009F000286840F48030EDE740F480202860F7E775
:100A0000FFF788FDA0EB08006428A4D828688003BD
:100A1000F6D50CE0FFF77EFD804605E0FFF77AFD96
:100A2000A0EB0800642896D828688003F6D42078C4
:100A300080073BD5042E11D00C2E01D1022F0DD0F2
:100A4000E06801E0B6E1FFE0002828681ED040F42D
:100A500080702860FFF75EFD07460CE028684005BF
:100A60000CD5E0680028C1D008E000BFFFF752FDB8
:100A7000C01B022893D828684005F7D56868217CF8
:100A800020F0F85040EA016068600FE020F48070C8
:100A90002860FFF73FFD074605E000BFFFF73AFD7E
:100AA000C01B0228B1D828684005F7D42078000779
:100AB00029D560690028D5F8940012D040F00100D3
:100AC000C5F89400FFF726FD074604E0FFF722FD76
:100AD000C01B022899D8D5F894008007F6D512E0FB
:100AE0002BE120F00100C5F89400FFF713FD074645
:100AF00005E000BFFFF70EFDC01B022885D8D5F822
:100B000094008007F6D42078400766D5A86D0027AA
:100B1000C00008D4A86D40F08050A865A86D0127DA
:100B200000F08050009053480168C90512D4016854
:100B3000814641F480710160FFF7ECFC804605E0DE
:100B4000FFF7E8FCA0EB080002287DD8D9F80000E8
:100B5000C005F5D5A068012816D00528D5F8900065
:100B600017D020F00100C5F89000D5F8900020F0D3
:100B7000040000BFC5F89000A06841F28839C0B1F8
:100B8000FFF7C8FC80460FE0D5F8900040F0010068
:100B9000F0E740F00400C5F89000F5E7FFF7BAFC75
:100BA000A0EB080149454FD8D5F890008007F5D54E
:100BB0000EE0FFF7AFFC804606E000BFFFF7AAFC9F
:100BC000A0EB080149453FD8D5F890008007F5D43F
:100BD0001FB1A86D20F08050A8652078800628D528
:100BE000606A0028D5F8980012D040F00100C5F8DE
:100BF0009800FFF78FFC074605E000BFFFF78AFC6F
:100C0000C01B022820D8D5F898008007F6D510E040
:100C100020F00100C5F89800FFF77CFC074604E0CF
:100C2000FFF778FCC01B02280ED8D5F89800800783
:100C3000F6D4A06AA8B1022824D00C2E7DD0286852
:100C400020F08070286000E0B3E02868000103D441
:100C5000E86820F00300E860E86807490840E860B9
:100C60000CE09FE000100240641800081000002013
:100C70000800002000700040FFFFEEFEFFF74AFC76
:100C8000044699E0E868E26A00F00301914226D147
:100C9000216B00F070020901103991421FD1626B83
:100CA00000F4FE41B1EB022F19D194F8382000F086
:100CB0007841B1EBC26F12D1A18F00F4C002490894
:100CC0004905A1F50011914209D194F8401000F0B6
:100CD000C06049084906A1F1007181424BD00C2E39
:100CE0006FD0286840016CD4286820F0807028609C
:100CF000FFF710FC064604E0FFF70CFC801B0228FF
:100D000057D828688001F7D4F4E90B016FF00F027F
:100D100002EB01110843218A5204490802EB4151B8
:100D2000A26841EA02210843217D4FF07E42490832
:100D300002EB41610843217B00E042E040EAC160F0
:100D4000E968214A11400843E860286840F0807053
:100D50002860E86840F08070E860FFF7DBFB04463D
:100D600005E000BFFFF7D6FB001B022821D828684A
:100D70008001F7D523E02868800120D4286840F05E
:100D800080702860E86840F08070E860FFF7C2FB80
:100D9000044604E0FFF7BEFB001B022809D82868C0
:100DA0008001F7D50BE000BFFFF7B4FB001B022862
:100DB00002D90320BDE8F88328688001F4D400201C
:100DC000F8E70120F6E700008C809D0110B5401E79
:100DD000B0F1807F01D3012010BD4FF0E0246061AD
:100DE0000F21601700F0FCFC0020A06107202061AB
:100DF000002010BDF0B590F83C20012A29D0012434
:100E000080F83C40022280F83D2003685A689D68C3
:100E1000114EB34203D122F470074A683A4322F0DC
:100E200070070A683A435A600268B24205D0B2F1CC
:100E3000804F02D0094B9A4204D1896825F0800383
:100E40001943916080F83D40002180F83C1008462D
:100E5000F0BD0220F0BD0000002C01400040014028
:100E600010B5040003D094F83D0010B107E0012054
:100E700010BD002084F83C00204600F023F802203A
:100E800084F83D00211D206800F0F2FA012084F86A
:100E9000480084F83E0084F83F0084F8400084F85D
:100EA000410084F8420084F8430084F8440084F848
:100EB000450084F8460084F8470084F83D0000208F
:100EC00010BD000008B50068B0F1804F08D105489A
:100ED000816D41F001018165806D00F0010000909D
:100EE00008BD00000010024070B5044690F83C00B8
:100EF000012817D0012584F83C50022084F83D00D9
:100F0000226890682E4B184020F47F40906008685B
:100F1000502830D00DDC20284DD005DC98B31028A7
:100F20003BD148E0022070BD302844D0402834D165
:100F300039E0602828D0702806D0B0F5805F2CD02A
:100F4000B0F5005F29D10AE0CB68D1E90121206822
:100F500000F0D1FA2068816841F0770109E0CB68A0
:100F6000D1E90121206800F0C6FA2068816841F4C7
:100F70008041816011E0CA684968206800F00CFC7B
:100F80005021206807E016E0CA684968206800F030
:100F900014FC6021206800F0B8FA84F83D5000206D
:100FA00084F83C0070BDCA684968206800F0F4FB12
:100FB00040212068EFE7226801461046EBE7000079
:100FC00088FFFEFF10B586B0044614216846FFF77F
:100FD0004DF92068B0F1804F15D10C48C16C41F03B
:100FE0000101C164C06C022100F0010005900120E4
:100FF000CDE9000100210291CDE9031069464FF0CF
:101000009040FFF7ABF906B010BD000000100240A1
:1010100070B5044690F83C000D4601280BD0012025
:1010200084F83C000C2A45D007DC5AB1042A1BD0B6
:10103000082A78D12CE0022070BD102A4ED0142A44
:1010400071D15DE0206800F069FA2068816941F0A3
:10105000080181612068816921F0040181612068B3
:1010600081692A69114311E0206800F093FA206831
:10107000816941F4006181612068816921F48061A6
:101080008161206881692A6941EA022181614AE01F
:10109000206800F0BBFA2068C16941F00801C16115
:1010A0002068C16921F00401C1612068C1692A6911
:1010B000114311E0206800F0E3FA2068C16941F4AF
:1010C0000061C1612068C16921F48061C16120684B
:1010D000C1692A6941EA0221C16124E0206800F067
:1010E000FFFA2068416D41F0080141652068416DBB
:1010F00021F0040141652068416D2A69114311E026
:10110000206800F01BFB2068416D41F400614165DF
:101110002068416D21F4806141652068416D2A6934
:1011200041EA02214165002084F83C0070BD10B501
:10113000040003D094F83D0010B107E0012010BD79
:10114000002084F83C00204600F022F8022084F8B9
:101150003D00211D206800F08BF9012084F8480033
:1011600084F83E0084F83F0084F8400084F8410091
:1011700084F8420084F8430084F8440084F8450071
:1011800084F8460084F8470084F83D00002010BD34
:101190007047000010B50446022269B1042912D03C
:1011A000082917D00C291CD0102921D094F843000D
:1011B000012824D0012010BD94F83E000128F9D167
:1011C00084F83E201DE094F83F000128F2D184F815
:1011D0003F2016E094F840000128EBD184F840202D
:1011E0000FE094F841000128E4D184F8412008E0A0
:1011F00094F842000128DDD184F8422001E084F80F
:1012000043200122206800F069F912492068124A3F
:10121000884204D0904202D0104B984203D1436CD4
:1012200043F4004343642068884204D0B0F1804F07
:1012300001D0904207D18168094A1140062906D0A1
:10124000B1F5803F03D0016841F001010160002049
:1012500010BD0000002C014000400140004401404E
:1012600007000100FEE700000D4808B5C16C41F021
:101270000401C164C16C01F004010091C16C41F032
:101280008001C164C16C01F080010091C16C41F02A
:101290000101C164C06C00F00100009008BD0000B5
:1012A0000010024030B58FB00024079408940994D0
:1012B0000A940B940C941C2168460D94FEF7D6FFFB
:1012C0001D484FF08041632502C040F69F7132C037
:1012D00040F8104984611848FFF7C2FD08B1FFF7D4
:1012E00028F84FF48050079007A91348FFF7FCFD3A
:1012F00008B1FFF71EF81048FFF719FF08B1FFF714
:1013000018F80B940BA90C480D94FFF773FD08B166
:10131000FFF70FF860200090CDE9015400226946E4
:1013200005480494FFF774FE08B1FFF702F802487D
:10133000FFF748FE0FB030BD14000020FEE7FEE7C7
:1013400070470000F8B51C4D06460024A86DC0008B
:1013500002D5FFF79BF90DE0A86D40F08050A8651D
:10136000A86D00F080500090FFF790F9A96D21F072
:101370008051A965B0F5007F04D0802E07D94FF0C9
:1013800003040AE0802E08D9A02E01D804E001D180
:10139000022402E0702E00D101240848016821F0E7
:1013A000070121430160006800F00700A04201D05E
:1013B0000120F8BD0020F8BD0010024000200240CE
:1013C0007047FFF7ADB810B596B044216846FEF7F8
:1013D0004DFF142111A8FEF749FF4FF40070FFF7ED
:1013E00021F908B172B6FEE701210804CDE9001029
:1013F000022003240A90CDE90B4114210D9107210D
:10140000CDE90E1010906846FFF72AFA08B172B6BF
:10141000FEE70F20CDE911040020139014901590E1
:10142000042111A8FFF73AF9002801D072B6FEE7AF
:1014300016B010BD0B48016841F4700101600A4804
:10144000016841F001010160002181600268074BE1
:101450001A4002608214C260026822F48022026094
:101460008161704788ED00E000100240FFFFF6EA5E
:1014700070B50268164B4FF08046984201D0B042DA
:1014800003D122F070044A682243124C124D984254
:1014900005D0B04203D0A04201D0A84203D122F42B
:1014A0004076CA6832434E6922F0800232430260BD
:1014B0008A68C2620A688262984203D0A04201D060
:1014C000A84201D1096901630121416170BD000099
:1014D000002C0140004001400044014010B501F0E3
:1014E0001F030121046A99408C430462016A9A40F7
:1014F0001143016210BD10B5846842EA032224F44E
:101500007F440A432243826010BD826822F0700249
:101510000A4342F00701816070470000F0B5026A9B
:1015200022F001020262056A43688269154C25F0C7
:10153000020522400C6822F0030214438A68134E0D
:101540002A43114D124FA84203D0B04201D0B842F5
:1015500006D122F0080CCA6842EA0C0222F004020A
:10156000A84203D0B04201D0B84205D14D6923F45E
:1015700040731D438B692B43436084614968416319
:101580000262F0BD8FFFFEFF002C014000400140D1
:101590000044014030B5026A22F010020262046A7F
:1015A00042688369154D2B400D6823F4407343EA6C
:1015B000052524F020038C6843EA0413104CA04254
:1015C00007D1CC6823F0800343EA041323F04003DF
:1015D00005E00C4CA04202D00B4CA04207D14C6954
:1015E00022F4406242EA84028C6942EA8402426048
:1015F000856149688163036230BD0000FF8FFFFE93
:10160000002C0140004001400044014030B5026A16
:1016100022F480720262046A4268C369144D2B404E
:101620000D6823F003031D4324F400738C6843EA20
:101630000423104CA04207D1CC6823F4006343EA92
:10164000042323F4806305E00B4CA04202D00B4C32
:10165000A04207D14C6922F4405242EA04128C693C
:1016600042EA04124260C5614968C163036230BD49
:101670008FFFFEFF002C014000400140004401406C
:1016800030B5026A22F480520262046A4268C36979
:101690000F4D24F400542B400D6823F4407343EAAB
:1016A00005238D6844EA05340A4DA84205D00A4D49
:1016B000A84202D0094DA84204D14D6922F48042CB
:1016C00042EA85124260C36149680164046230BD28
:1016D000FF8FFFFE002C014000400140004401400C
:1016E00030B5026A22F480320262046A4268436DB5
:1016F0000E4D2B400D681D4324F400330C8943EA42
:1017000004430B4CA04205D00A4CA04202D00A4C24
:10171000A04204D14C6922F4803242EA04224260A1
:10172000456549688165036230BD00008FFFFEFF9B
:10173000002C0140004001400044014030B5026AE5
:1017400022F480120262046A4268436D0E4D24F452
:1017500000142B400D6843EA05230D8944EA055423
:101760000A4DA84205D00A4DA84202D0094DA84210
:1017700004D14D6922F4802242EA85224260436509
:101780004968C165046230BDFF8FFFFE002C014037
:10179000004001400044014010B5036A046A24F08F
:1017A00001040462846924F0F00444EA021423F082
:1017B0000A020A438461026210BD10B5036A23F075
:1017C000100303628369046A23F4704343EA02321C
:1017D00024F0A00343EA01118261016210BDFEE71B
:1017E0000907090E002804DB00F1E02080F800144E
:1017F000704700F00F0000F1E02080F8141D7047E2
:10180000FEF796FEFFF7DFFDFFF72EFDFFF74AFD1F
:1018100000210F48FFF7BEFC0E4C0D4D4FF496769D
:1018200006E0401C80B22080296848631E200CE03E
:1018300020886428F5D304E0401E20801E20FEF797
:101840007BFD20880028F7D13046FEF775FDEFE7D5
:1018500014000020000000204FF04070E1EE100A5C
:1018600070470000000000000000000001020304B7
:1018700006070809A0860100400D0300801A060033
:1018800000350C0040420F0080841E0000093D001E
:1018900000127A000024F40000366E010048E801CE
:1018A000006CDC02C41800080000002014000000D6
:1018B000C8010008D818000814000020AC06000079
:1018C000E40100080000000001000000100000001A
:0818D0000000000000093D00CA
:040000050800018D61
:00000001FF
