:020000040800F2
:10000000300700202D0200080F18000817170008FD
:100010000D1800081B040008A920000800000000BB
:10002000000000000000000000000000BD190008F2
:100030001D0400080000000011180008BF19000886
:10004000470200084702000847020008470200086C
:10005000470200084702000847020008470200085C
:100060001F04000825040008470200084702000892
:10007000470200084702000847020008470200083C
:10008000470200084702000847020008470200082C
:10009000470200084702000847020008470200081C
:1000A000470200084702000847020008470200080C
:1000B000470200080000000000000000470200089E
:1000C00047020008470200084702000847020008EC
:1000D000470200089D200008470200084702000868
:1000E000470200084702000800000000000000006E
:1000F0000000000000000000000000000000000000
:10010000000000004702000800000000470200084D
:10011000000000000000000047020008470200083D
:10012000470200084702000847020008470200088B
:10013000470200080000000000000000000000006E
:1001400047020008470200084702000800000000BC
:10015000470200084702000847020008470200085B
:10016000470200084702000847020008000000009C
:1001700047020008470200080000000000000000DD
:1001800047020008470200084702000800F002F892
:1001900000F03CF80AA090E8000C82448344AAF1E5
:1001A0000107DA4501D100F031F8AFF2090EBAE8E3
:1001B0000F0013F0010F18BFFB1A43F0010318479B
:1001C000AC1F0000CC1F0000103A24BF78C878C1D3
:1001D000FAD8520724BF30C830C144BF04680C604D
:1001E000704700000023002400250026103A28BF95
:1001F00078C1FBD8520728BF30C148BF0B60704799
:100200001FB501F089FF1FBD10B510BD00F0CFF87C
:100210001146FFF7F5FF01F059FF00F0EDF803B4C8
:10022000FFF7F2FF03BC00F0F1F800000948804737
:1002300009480047FEE7FEE7FEE7FEE7FEE7FEE7C8
:10024000FEE7FEE7FEE7FEE704480549054A064BE0
:1002500070470000511A00088D010008300100208D
:1002600030070020300300203003002053EA020C46
:1002700000F069802DE9F04B4FF00006002B1FBF06
:10028000B3FA83F503FA05F424FA05F65E4012BFCB
:100290001643B2FA82F502FA05F4C5F120051EBF35
:1002A00022FA05FC44EA0C04203556EA044C4FEAD5
:1002B000144418BF641C4FF000084FF0000990422E
:1002C00071EB030C39D3002919BFB1FA81F701FA98
:1002D00007F6B0FA80F700FA07F6C7F120071EBF4D
:1002E00020FA07FC46EA0C062037B6FBF4FCA7EB25
:1002F0000507103F07F01F0BCBF120060CFA0BFB94
:100300002CFA06F644BFB3460026202FA4BF5E4653
:100310004FF0000B5BEA060C08BF4FF0010B19EB26
:100320000B09ABFB027C48EB0608C01B06FB02CCAA
:100330000BFB03CC71EB0C01C1E70B4602464146B7
:100340004846BDE8F08B13B54FF000004FF00001B8
:10035000AFF30080BDE81C4070474FF0000200B5CD
:10036000134694469646203922BFA0E80C50A0E8D8
:100370000C50B1F12001BFF4F7AF090728BFA0E886
:100380000C5048BF0CC05DF804EB890028BF40F852
:10039000042B08BF704748BF20F8022B11F0804F94
:1003A00018BF00F8012B70477047704770477546BB
:1003B00000F028F8AE4605006946534620F00700D5
:1003C000854618B020B5FFF73FFFBDE820404FF04D
:1003D00000064FF000074FF000084FF0000B21F02F
:1003E0000701AC46ACE8C009ACE8C009ACE8C009FC
:1003F000ACE8C0098D4670470446AFF30080204644
:10040000FFF70DFF00487047D00000200149182079
:10041000ABBEFEE7260002007047FEE770470420EF
:1004200000F070B8082000F06DB872B6FEE710B5A5
:1004300090F825100022022905D00421C16380F81C
:100440002420012010BD01680B6823F00E030B600F
:1004500001680B6823F001030B6090F84410046CF2
:1004600001F01C03012101FA03F3636080F82510F9
:1004700080F82420104610BD10B590F825100024F7
:10048000022903D00421C16301241AE001680A682B
:1004900022F00E020A6001680A6822F001020A6076
:1004A00090F84410036C01F01C02012101FA02F2E1
:1004B0005A6080F82510002180F82410816B01B16A
:1004C0008847204610BD000010B50C4B4FF400517A
:1004D000042807D0082810D1BDE810400022184693
:1004E00000F0F8B80122184600F0F4F8044801784A
:1004F000491C01704178491C417010BD000800483A
:1005000000000020044910B50A68024202D00860C9
:10051000FFF7DAFF10BD0000140401402DE9FC4F85
:10052000DFF894A1002301250AF1040B03244FF006
:100530000F0C0BF1040EB8E005FA03F632406FD051
:100540004F68012F05D0022F03D0112F01D0122F99
:1005500017D1D0F808905F0004FA07F829EA0809D3
:100560000097D1F80C8008FA07F848EA0908C0F8A3
:1005700008804768B7430E79C6F300169E403E4395
:100580004660C6684FEA430804FA08F7BE4301977D
:100590008F6807FA08F73743C7604E68022E01D00C
:1005A000122E13D1DE0800EB86060096366A5F072E
:1005B000FF0E0CFA07F926EA0906D1F8109009FA9D
:1005C00007F949EA0609009EC6F820900668019FCF
:1005D000BE430F7907F0030707FA08F737430760B0
:1005E0004E68F60060D5354E376E47F00107376626
:1005F000366E23F0030706F001060096304E3E44A7
:10060000B146B6689F074FEA17780CFA08F7BE4361
:10061000B0F1904F05D02B4FB84204D1012712E022
:1006200042E000270FE0284FB84201D102270AE03C
:10063000264FB84201D1032705E0254FB84201D12A
:10064000042700E0072707FA08F73743C9F80870BE
:10065000DAF800605746D1F8048096435FEAC8385C
:1006600000D516433E60DBF800605F46D1F8048099
:1006700096435FEA883800D516433E60DEF8006096
:100680007746D1F8048096435FEAC82800D5164320
:100690003E60094F0C373E68D1F8048096435FEA0C
:1006A000882800D516433E605B1C0A6832FA03F6C0
:1006B0007FF442AFBDE8FC8F00040140001002400F
:1006C000000001400004004800080048000C0048F9
:1006D000001000480AB181617047816270470000D4
:1006E00001488068704700002C00002002488168A3
:1006F00002781144816070472C00002010B500245E
:10070000032000F071F8002000F008F808B101247F
:1007100001E000F025F8204610BD000070B50E4E37
:1007200005460024307898B14FF47A71B1FBF0F0AF
:100730000A490968B1FBF0F000F0CAFD40B9102D7C
:1007400006D200222946501E00F02EF8756000E007
:100750000124204670BD00002C000020380000203D
:10076000094808B5016E41F001010166016E01F012
:1007700001010091816D41F080518165806D00F033
:100780008050009008BD000000100240002809DBE6
:1007900000F01F02012191404009800000F1E0209B
:1007A000C0F8001170470000F0B40E4B1B680C46F7
:1007B000C3F30223C3F10705042D00D90425191D35
:1007C000072901D2002300E0DB1E012606FA05F10D
:1007D000491E214099409E40761E16403143F0BC90
:1007E00001F063BC0CED00E0064900F00702086868
:1007F0004FF6FF03184040EA0220034A1043086006
:10080000704700000CED00E00000FA051649B0F555
:10081000007F0868C0F3412009D0022805D008688D
:1008200020F4C06040F48060086000207047012818
:10083000FBD0086820F4C06040F4007008600B48EA
:100840003222006850430A4AB0FBF2F0401C00E03C
:10085000401E4A69520501D50028F9D14869400572
:10086000E3D50320704700000070004038000020EE
:1008700040420F000248006800F4C060704700006A
:10088000007000400248016841F4807101607047C7
:10089000007000400248016841F0040101607047A7
:1008A000001002402DE9F84F044600270088A84DAB
:1008B0003E46000515D5606C60B1B0F5000F04D060
:1008C000B0F5400F2BD001270AE0E86840F48030F3
:1008D000E86024E00021201D00F09CFF07001ED0EE
:1008E0003E46206880033AD5A86D4FF00008C0004E
:1008F00009D4A86D40F08050A865A86D4FF001089C
:1009000000F080500090DFF84CA2DAF8001041F4BB
:100910008071CAF80010FFF7E3FE814610E0D5F8B9
:100920008800616C20F440000843C5F88800D8E7CF
:10093000FFF7D6FEA0EB0900022801D9032705E046
:10094000DAF80000C005F3D5002F7DD04FEA070686
:10095000B8F1000F03D0A86D20F08050A865207872
:10096000C00707D0D5F88800216A20F003000843AB
:10097000C5F888002078800707D5D5F88800616A17
:1009800020F00C000843C5F888002078400707D500
:10099000D5F88800A16A20F030000843C5F8880027
:1009A0002078800607D5D5F88800E16A20F44060F9
:1009B0000843C5F888002088800507D5D5F8880049
:1009C000E16B20F440200843C5F8880020884005EA
:1009D00007D5D5F88800216C20F440100843C5F8ED
:1009E00088002078400607D5D5F88800216B20F4D0
:1009F00040500843C5F888002078000607D5D5F890
:100A00008800616B20F440400843C5F888002088C6
:100A1000C00507D5D5F88800A16B20F44030084305
:100A2000C5F8880020684FF0006700034FF0806829
:100A300050D5D5F88800A16C20F040600843C5F877
:100A40008800A06CB84200E005E03BD1E86840F4C3
:100A50008010E8603EE0D5F8900010F4407014D0AB
:100A6000A16D814211D0D5F89000D5F8901020F4F6
:100A7000407041F48031C5F89010D5F8901021F401
:100A80008031C5F89010C5F89000C00711D0FFF76D
:100A900027FE074641F2883907E000BFFFF720FE36
:100AA000C11B494501D9032652E7D5F890008007BC
:100AB000F4D5D5F89000A16D20F440700843C5F836
:100AC000900045E7404505D10121201D00F0A2FE20
:100AD00000B106462068400317D5D5F88800E16CC0
:100AE00020F040600843C5F88800E06CB84204D1AB
:100AF000E86840F48010E86007E0404505D1012136
:100B0000201D00F087FE00B106462088400411D564
:100B1000D5F88800216D20F040500843C5F88800C2
:100B2000206DB0F1805F05D10221201D00F072FE22
:100B300000B106462088000406D555F8880F616D7F
:100B400020F08040084328603046BDE8F88F000060
:100B500000100240007000402DE9F0470F460500EC
:100B600058D0404E306800F00700B84209D23068D3
:100B700020F0070038433060306800F00700B842CA
:100B800048D12878384CC0072CD06868032811D089
:100B9000022812D0216898B1490500293ADAA168E3
:100BA00021F003010143A160FFF79AFD804641F265
:100BB000883910E021688901EFE721688903ECE7B3
:100BC0008907EAE7FFF78CFDA0EB0801494502D948
:100BD0000320BDE8F087A068696800F00C00B0EB66
:100BE000810FEFD12878800705D5A068A96820F08B
:100BF000F0000843A060306800F00700B8420BD94D
:100C0000306820F0070038433060306800F007009B
:100C1000B84201D00120DCE72878400705D5A0685C
:100C2000E96820F4E0600843A0602878000706D552
:100C3000A068296920F4605040EAC100A06000F07B
:100C40003FF8A168094AC1F30311515C01F01F018B
:100C5000C8400749086007480068BDE8F047FFF74B
:100C60005DBD000000200240001002402421000869
:100C700038000020300000200548064900688968D7
:100C8000054AC1F30221515C01F01F01C8407047C1
:100C90003800002000100240642100080548064981
:100CA00000688968054AC1F3C221515C01F01F0147
:100CB000C84070473800002000100240642100083E
:100CC00070B52549002318468A68CC6812F00C02DA
:100CD00004F00306214C4FEA640509D00C2A05D024
:100CE000042A32D0082A00D1284670BD012E10D126
:100CF0000B681B0704D4D1F89430C3F3032302E03C
:100D00000B68C3F30313164E56F82330DAB10C2ADE
:100D1000EBD1C86800F00300022818D0032818D0CF
:100D20001846CA68CB68C2F30212C3F306234343D2
:100D3000521CB3FBF2F2C868C0F34160401C400093
:100D4000B2FBF0F070BD184670BD204670BD204665
:100D5000E7E72846E5E70000001002400024F40021
:100D6000342100082DE9F84304006FD0FE4DA86837
:100D700000F00C06E86800F003072078C00664D590
:100D800076B10C2E01D1012F0AD0A0690028286865
:100D90007AD040F001002860FFF7A2FC80465DE0B9
:100DA0002868800702D5A0690028DED0216A28685B
:100DB000000703D5286800F0F00004E0D5F894009F
:100DC000F02202EA1010814216D9084600F0B8FD60
:100DD00000283BD1286840F0080028602868216A74
:100DE00020F0F000084328606868E16920F47F4043
:100DF00040EA0120686016E0286840F0080028609A
:100E00002868216A20F0F000084328606868E169DA
:100E100020F47F4040EA0120686026B9206A00F093
:100E20008FFD0028D5D1FFF74BFFA968CF4AC1F34A
:100E30000311515C01F01F01C840CD490860CD4845
:100E40000068FFF76BFC00287ED12EE0CAE000BFEF
:100E5000FFF746FCA0EB0800022876D82868800738
:100E6000F6D5286840F0080028602868216A20F03C
:100E7000F000084328606868E16920F47F4040EA98
:100E80000120686011E0FFE720F001002860FFF713
:100E900027FC804606E000BFFFF722FCA0EB08001D
:100EA0000228DAD828688007F6D42078C00740D016
:100EB000082E18D00C2E01D1032F14D06068B0F585
:100EC000803F17D0B0F5A02F286817D020F48030CD
:100ED0002860286820F4802028606068E0B1FFF76F
:100EE000FFFB804614E02868800322D56068002854
:100EF00078D01EE0286840F48030EDE740F4802090
:100F00002860F7E7FFF7ECFBA0EB08006428A4D803
:100F100028688003F6D50CE0FFF7E2FB804605E089
:100F2000FFF7DEFBA0EB0800642896D82868800352
:100F3000F6D4207880073BD5042E11D00C2E01D199
:100F4000022F0DD0E06801E0B6E1FFE0002828683C
:100F50001ED040F480702860FFF7C2FB07460CE00B
:100F6000286840050CD5E0680028C1D008E000BF23
:100F7000FFF7B6FBC01B022893D828684005F7D5B9
:100F80006868217C20F0F85040EA016068600FE05A
:100F900020F480702860FFF7A3FB074605E000BF40
:100FA000FFF79EFBC01B0228B1D828684005F7D484
:100FB0002078000729D560690028D5F8940012D060
:100FC00040F00100C5F89400FFF78AFB074604E0F3
:100FD000FFF786FBC01B022899D8D5F8940080073C
:100FE000F6D512E02BE120F00100C5F89400FFF7E0
:100FF00077FB074605E000BFFFF772FBC01B022826
:1010000085D8D5F894008007F6D42078400766D5B7
:10101000A86D0027C00008D4A86D40F08050A865D6
:10102000A86D012700F08050009053480168C90561
:1010300012D40168814641F480710160FFF750FBD2
:10104000804605E0FFF74CFBA0EB080002287DD8A6
:10105000D9F80000C005F5D5A068012816D00528EC
:10106000D5F8900017D020F00100C5F89000D5F811
:10107000900020F0040000BFC5F89000A06841F285
:101080008839C0B1FFF72CFB80460FE0D5F89000FF
:1010900040F00100F0E740F00400C5F89000F5E7EB
:1010A000FFF71EFBA0EB080149454FD8D5F890008B
:1010B0008007F5D50EE0FFF713FB804606E000BF82
:1010C000FFF70EFBA0EB080149453FD8D5F890008B
:1010D0008007F5D41FB1A86D20F08050A865207856
:1010E000800628D5606A0028D5F8980012D040F014
:1010F0000100C5F89800FFF7F3FA074605E000BFC6
:10110000FFF7EEFAC01B022820D8D5F89800800718
:10111000F6D510E020F00100C5F89800FFF7E0FADE
:10112000074604E0FFF7DCFAC01B02280ED8D5F80A
:1011300098008007F6D4A06AA8B1022824D00C2E0B
:101140007DD0286820F08070286000E0B3E0286837
:10115000000103D4E86820F00300E860E86807496C
:101160000840E8600CE09FE00010024024210008E5
:10117000380000203000002000700040FFFFEEFE2D
:10118000FFF7AEFA044699E0E868E26A00F003016E
:10119000914226D1216B00F0700209011039914271
:1011A0001FD1626B00F4FE41B1EB022F19D194F80C
:1011B000382000F07841B1EBC26F12D1A18F00F45A
:1011C000C00249084905A1F50011914209D194F8DE
:1011D000401000F0C06049084906A1F10071814249
:1011E0004BD00C2E6FD0286840016CD4286820F0BA
:1011F00080702860FFF774FA064604E0FFF770FA83
:10120000801B022857D828688001F7D4F4E90B0125
:101210006FF00F0202EB01110843218A52044908C2
:1012200002EB4151A26841EA02210843217D4FF0BF
:101230007E42490802EB41610843217B00E042E025
:1012400040EAC160E968214A11400843E860286823
:1012500040F080702860E86840F08070E860FFF738
:101260003FFA044605E000BFFFF73AFA001B0228E8
:1012700021D828688001F7D523E02868800120D490
:10128000286840F080702860E86840F08070E8606E
:10129000FFF726FA044604E0FFF722FA001B0228B3
:1012A00009D828688001F7D50BE000BFFFF718FACE
:1012B000001B022802D90320BDE8F88328688001BA
:1012C000F4D40020F8E70120F6E700008C809D01AF
:1012D00010B5401EB0F1807F01D3012010BD4FF04A
:1012E000E02460610F21601700F0DFFE0020A061A4
:1012F00007202061002010BD704770477047000034
:101300002DE9F04102680446D0691168936840F6FF
:101310000F0528424FF0000505D1860678D58E06C8
:1013200076D5616EF3E0834F03F001060F4037433B
:101330007ED0C70709D0CF0507D501271762D4F89B
:10134000802042F00102C4F8802082070AD5DA0723
:1013500008D0276802223A62D4F8802042F00402C2
:10136000C4F8802042070AD5DA0708D0236804228F
:101370001A62D4F8802042F00202C4F880200207EA
:101380000CD501F02002324308D0236808221A62EB
:10139000D4F8802042F00802C4F8802002050BD562
:1013A0004A0109D523684FF400621A62D4F88020FC
:1013B00042F02002C4F88020D4F88020002A2FD0E8
:1013C000800605D5880603D5616E09B12046884799
:1013D000D4F8800021688968490602D410F0280FEB
:1013E00020D0204600F0EEFB20688168490614D525
:1013F000816821F040018160206F70B14E498163A6
:10140000206FFFF739F800280AD0206F816B01E0C8
:101410000EE02046BDE8F04108472046FFF76EFF8A
:10142000BDE8F0812046FFF769FFC4F88050F7E778
:10143000276E2026012F59D1C70657D5CF0655D57F
:10144000102010622268906840062ED5216F08682F
:1014500040680004000CE3D0B4F858308342DFD970
:10146000A4F85A0008680068800617D4106820F4B1
:10147000807010602068816821F00101816020681F
:10148000816821F040018160E66725662068016877
:1014900021F010010160206FFEF7C9FFB4F8580079
:1014A000B4F85A10401A81B21CE0B4F85800B4F8ED
:1014B0005A10401A81B2B4F85A000028B0D000295E
:1014C000AED0106820F4907010602068826822F01E
:1014D00001028260E667256665662068026822F080
:1014E000100202602046FFF707FF99E7C70209D5FF
:1014F0005B0207D54FF4801010622046BDE8F04132
:10150000FFF7FBBE030606D50B0604D5A16E002926
:101510007FF47FAF84E7400682D5480680D5106807
:1015200020F040001060A6672046A56600F0F2F8A3
:1015300076E7000020010004B11B000810B504008C
:1015400002D0A06F10B107E0012010BD002084F888
:101550007400204600F026F82420A0672068016867
:1015600021F001010160204600F0C0FB0128ECD011
:10157000606A10B1204600F089FA2068416821F4C1
:10158000904141602068816821F02A0181602068D3
:10159000016841F0010101602046BDE8104000F003
:1015A000D9BA000010B59EB00446142117A8FEF762
:1015B000D4FE5C216846FEF7D0FE1C4920688842B4
:1015C00031D101200024009008946846FFF76AF9A1
:1015D00008B1FEF72AFF1648016E41F4804101660A
:1015E000016E01F480411C91C16C41F00101C164A4
:1015F000C06C17A900F001001C904FF4C060179058
:101600000220CDE9180403201A9007201B904FF008
:101610009040FEF783FF002211462520FFF7C4F813
:101620002520FFF7B3F81EB010BD000000380140C0
:101630000010024010B4C36F202B1BD1B9B1B2B15E
:1016400090F87430012B15D0012380F874300023FA
:101650000366094C0368A34206D05C68240203D5E4
:101660001C6844F080641C6010BC00F03FBC01208A
:1016700010BC70470220FBE70080004010B5044614
:101680000068084988420BD10D220749204600F026
:101690000DF82046BDE810400D220349FFF7CABFF0
:1016A00010BD0000003801403C000020836F202B5B
:1016B00029D1B9B1B2B190F87430012B23D00123F4
:1016C00080F87430C164A0F85020A0F852200021A6
:1016D0008166C0F88010212282678268B2F5805F3F
:1016E00002D003E001207047026952B1074A8266C6
:1016F00080F874100068016841F0800101600020EA
:101700007047034AF3E7022070470000BD1F00083E
:101710007D1F00087047FEE730B587B0142168468A
:10172000FEF71BFE2648C16C41F00401C164C16C88
:1017300001F004010591C16C41F08001C164C16CEC
:1017400001F080010591C16C41F00201C164C16CDE
:1017500001F002010591C16C41F00101C164C06C4E
:10176000184D00F001004FF400540590002221466E
:101770002846FEF7AFFF009401240021CDE9014186
:10178000039169462846FEF7C9FE0C2000900E48DA
:10179000CDE9010469460D48FEF7C0FE0022012193
:1017A0000820FFF701F80820FEF7F0FF00220221D1
:1017B0000920FEF7F9FF0920FEF7E8FF07B030BD6A
:1017C000001002400008004800001110000400480A
:1017D0000D4810B50B4901604FF4E1314160002123
:1017E00081600C22C160C0E904128161C1610162A3
:1017F0004162FFF7A3FE002803D0BDE81040FEF7CA
:1018000014BE10BD003801404C000020FEE7FEE78A
:10181000704700002DE9F041444C05468846E068D9
:101820000026810728680DD0E16801F0030181429C
:1018300016D1A8B1E0686968C0F30210401C884264
:101840000ED120E0012804D0022805D0032807D1BA
:1018500008E02168890701E021684905002907DBC4
:1018600001265FE02168890302D421684903F5E776
:10187000E1686A686FF00F0321F0730103EB021255
:1018800011430143E160206820F080602060FEF792
:1018900027FF074605E000BFFEF722FFC01B022816
:1018A00037D820680001F7D4B8F1000F18D0B8F18C
:1018B000010F1DD0287D4FF07E41400801EB4060B4
:1018C000A96840EA01202169194A114008432061B2
:1018D000206840F080602060FEF702FF07461AE0B3
:1018E000A868297B000240EAC1602169114AECE73F
:1018F000288A1149400801EB4050A96840EA0120BC
:1019000021690E4AE1E700BFFEF7EAFEC01B02288C
:1019100001D9032606E020680001F5D52069A969F0
:10192000084320613046BDE8F0810000001002400D
:10193000FF80FFF9FF80FF070000E0FFFF809FFFAF
:10194000F8B51C4D06460024A86DC00002D5FEF770
:1019500091FF0DE0A86D40F08050A865A86D00F0E3
:1019600080500090FEF786FFA96D21F08051A96597
:10197000B0F5007F04D0802E07D94FF003040AE0B1
:10198000802E08D9A02E01D804E001D1022402E063
:10199000702E00D101240848016821F0070121437D
:1019A0000160006800F00700A04201D00120F8BDEE
:1019B0000020F8BD00100240002002407047FEF7F2
:1019C00095BE000010B596B044216846FEF7C5FCF0
:1019D000142111A8FEF7C1FC4FF40070FEF716FFAA
:1019E00008B172B6FEE7FEF74DFF184850F8901F99
:1019F00021F01801016014200090012002900024C1
:101A000060210690CDE907410221CDE90A100C9032
:101A100028200D900720CDE90E0168461091FFF7B0
:101A2000A1F908B172B6FEE70F2011900320CDE9AD
:101A300012041494042111A81594FFF78DF808B12D
:101A400072B6FEE7FEF726FF16B010BD001002408A
:101A50000B48016841F4700101600A48016841F0D7
:101A600001010160002181600268074B1A40026099
:101A70008214C260026822F4802202608161704791
:101A800088ED00E000100240FFFFF6EA90F8241015
:101A9000C90706D001684A68836A22F400321A43F3
:101AA0004A6090F82410890706D501684A68C36A1D
:101AB00022F480321A434A6090F82410490706D570
:101AC00001684A68036B22F480221A434A6090F846
:101AD0002410090706D501684A68436B22F40042C6
:101AE0001A434A6090F82410C90606D501688A682E
:101AF000836B22F480521A438A6090F8241089067E
:101B000006D501688A68C36B22F400521A438A60C2
:101B100090F82410490611D501684A68036C22F434
:101B200080121A434A60016CB1F5801F06D101682A
:101B30004A68436C22F4C0021A434A6090F82410A9
:101B4000090606D501684A68806C22F40022024327
:101B50004A607047F8B500260446C0F88060FEF77A
:101B6000BFFD0546206800686FF07E47000708D576
:101B70002B4600224FF400112046009700F03CFA5B
:101B800060B92068006840070AD52B4600224FF450
:101B900080012046009700F02FFA08B10320F8BD1D
:101BA0002020A067E067266684F874600020F8BDF6
:101BB00010B5806A0021A0F85A10A0F85210FFF763
:101BC0009DFB10BD01680A6822F490720A600168EA
:101BD0008A6822F001028A60016E012904D101683D
:101BE0000A6822F010020A602021C1670021016604
:101BF0004166704770B5B0F85C10C26F044600686B
:101C0000222A04D0018B41F00801018370BD808C31
:101C1000626D08401080606D801C6065B4F85A00E9
:101C2000401EA4F85A00B4F85A000028EED12068EB
:101C3000016821F4907101602068816821F0010140
:101C400081602020E06700256566206E012804D0B1
:101C50002046FFF713FD256670BD2068016821F05E
:101C600010010160B4F858102046FFF745FBF2E779
:101C700070B5B0F85C10C26F04460068222A04D028
:101C8000018B41F00801018370BD808C0840616DBB
:101C90000870606D401C6065B4F85A00401EA4F8DE
:101CA0005A00B4F85A000028EED12068016821F4E7
:101CB000907101602068816821F00101816020201D
:101CC000E06700256566206E012804D02046FFF7F6
:101CD000D5FC256670BD2068016821F01001016007
:101CE000B4F858102046FFF707FBF2E72DE9F04162
:101CF0000446016880682269E3691043626900252F
:101D00001A431043714F0A68714B1A4002430A602C
:101D100020684168E26821F4405111434160216824
:101D2000A069B94201D0226A10438A6822F4306265
:101D300002438A606749236867488B420DD1D0F817
:101D4000880010F0030006D0012847D0022843D0B5
:101D5000032830D144E001212EE060498B420BD1B1
:101D6000D0F8880010F00C0034D0042836D00828B1
:101D700032D00C281FD133E059498B420BD1D0F817
:101D8000880010F0300025D0102827D0202823D03C
:101D9000302810D124E0BB420DD1D0F8880010F4D7
:101DA000406017D0B0F5806F18D0B0F5006F13D039
:101DB000B0F5406F14D010214A4A00264FF400407D
:101DC000BB422DD171B102290FD004290FD00829AF
:101DD00072D10FE00021EFE70221EDE70421EBE7EC
:101DE0000821E9E7FEF748FF03E0104602E0FEF7AE
:101DF00067FFE0B3626802EB420181425CD8B0EB5E
:101E0000023F59D8010E03025008181871410023EF
:101E1000FEF72CFA344AA0F5407191424ED94BE0BE
:101E2000E3694FF6EF77834228D1092944D2DFE8EE
:101E300001F005080B430D4343431000FEF71CFF60
:101E400006E0FEF72BFF03E0104602E0FEF738FF46
:101E500068B14100606801EB5001B1FBF0F081B264
:101E6000A1F11000B84227D84FF6F07200E027E049
:101E700001EA0200C1F3420108431FE009291BD215
:101E8000DFE801F005080B1A0D1A1A1A1000FEF708
:101E9000F3FE06E0FEF702FF03E0104602E0FEF765
:101EA0000FFF68B1616800EB5100B0FBF1F080B248
:101EB000A0F11001B94201D9012501E02168C860F3
:101EC00066662846A666BDE8F081000000800040F6
:101ED000F369FFEF00380140001002400044004069
:101EE000004800400024F400FFFC0F0030B54165BD
:101EF000A0F85820A0F85A200022426681684FF4CA
:101F00008055FF23A94204D1016921BB40F2FF1192
:101F100027E07F24E9B1B1F1805F1FD0A0F85C20F9
:101F2000C0F880202221C16701688B6843F001035B
:101F30008B608168A94201D10169C1B10D49416637
:101F400080F874200068016841F4907101600020FD
:101F500030BD016941B9A0F85C30E1E7016919B110
:101F60003F21A0F85C10DBE7A0F85C40D8E702490D
:101F7000E5E70000711C0008F51B0008816F2129AE
:101F800010D1B0F8521071B1C16C02680988C1F368
:101F900008011185C16C891CC164B0F85210491E3A
:101FA000A0F85210704701680A6822F080020A60A7
:101FB0000068016841F0400101607047816F21298C
:101FC0000ED1B0F8521061B1C16C02680978118568
:101FD000C16C491CC164B0F85210491EA0F85210DF
:101FE000704701680A6822F080020A600068016890
:101FF00041F04001016070472DE9F0479A461746CD
:102000000E4604464FF000094FF02008089D39E0C5
:10201000681C37D0FEF764FBA0EB0A00A84222D868
:102020000DB32068016849072CD5C069C04300057D
:1020300028D421684FF4006008622068016821F408
:10204000D07101602068816821F001018160C4F8CD
:102050007880C4F87C80C4F8808000BF84F87490D5
:102060000320BDE8F0872068016821F4D071016089
:102070002068816821F001018160C4F87880C4F88B
:102080007C80EBE72068C06936EA000004D00020BD
:10209000B842BDD00020E4E70120F9E70148FFF78E
:1020A0002FB900004C000020FEE70907090E0028A8
:1020B00004DB00F1E02080F80014704700F00F000E
:1020C00000F1E02080F8141D70470000FEF716FBB9
:1020D000FFF778FCFFF720FBFFF77AFB0D220B4997
:1020E0000B48FFF7A7FA14220A490948FFF7DEFA5E
:1020F000084CA41E607861788142FBD00549132208
:1021000014310348FFF7D2FAF4E700003C00002046
:102110004C000020020000204FF04070E1EE100A59
:1021200070470000000000000000000001020304EE
:1021300006070809A0860100400D0300801A06006A
:1021400000350C0040420F0080841E0000093D0055
:1021500000127A000024F40000366E010048E80105
:10216000006CDC0200000000010203048C21000866
:10217000000000203C000000C8010008C821000841
:102180003C000020F4060000E40100080000555364
:102190004152543120697320726561647921212193
:1021A0000A007661726961626C653220213D2066A9
:1021B0006C61670A000000000100000010000000D0
:0821C0000000000000093D00D1
:040000050800018D61
:00000001FF
